:100000000C943E000C9448000C9448000C9448005A
:100010000C9448000C9448000C9448000C94480040
:100020000C9448000C9448000C9448000C94480030
:100030000C9448000C9448000C9448000C94480020
:100040000C9448000C9448000C9448000C94480010
:100050000C9448000C9448000C9448000C94480000
:100060000C9448000C9448000C9448000C944800F0
:100070000C9448000C9448000C94480011241FBEB6
:10008000CFEFD8E0DEBFCDBF0E9469000C947B00AB
:100090000C940000982F20E061157105C9F0492FDC
:1000A000417050E0FA01022E01C0EE0F0A94EAF707
:1000B000E5B9969511F02F5F02C0982F20E0EFEC84
:1000C000F7E03197F1F700C0000061507109E4CF0B
:1000D00008958FEF84B968EE73E081E00E944A00D2
:1000E00068EE73E082E00E944A0068EE73E083E00D
:0A00F0000E944A00F0CFF894FFCF01
:00000001FF
