:100000000C943E000C9448000C9448000C9448005A
:100010000C9448000C9448000C9448000C94480040
:100020000C9448000C9448000C9448000C94480030
:100030000C9448000C9448000C9448000C94480020
:100040000C9448000C9448000C9448000C94480010
:100050000C9448000C9448000C9448000C94480000
:100060000C9448000C9448000C9448000C944800F0
:100070000C9448000C9448000C94480011241FBEB6
:10008000CFEFD8E0DEBFCDBF0E94A7000C94A9003F
:100090000C940000982F20E061157105C9F0492FDC
:1000A000417050E0FA01022E01C0EE0F0A94EAF707
:1000B000E5B9969511F02F5F02C0982F20E0EFEC84
:1000C000F7E03197F1F700C0000061507109E4CF0B
:1000D00008958FEF84B968EE73E081E00E944A00D2
:1000E00068EE73E082E00E944A0068EE73E083E00D
:1000F0000E944A00F0CF1AB88FEF84B980E090E0F8
:1001000039B121E0432F447032FF20E0921731F0E3
:1001100015B880E0411113C0922FF2CF2223E1F3F2
:100120008B3068F0289906C0299B04C095B19C7F4C
:10013000916003C095B19C7F926095B9EDCF8F5FC0
:10014000EFECF7E03197F1F700C00000E5CF0E9437
:060150007B00F894FFCFD4
:00000001FF
