:100000000C943E000C9448000C9448000C9448005A
:100010000C9448000C9448000C9448000C94480040
:100020000C9448000C9448000C9448000C94480030
:100030000C9448000C9448000C9448000C94480020
:100040000C9448000C9448000C9448000C94480010
:100050000C9448000C9448000C9448000C94480000
:100060000C9448000C9448000C9448000C944800F0
:100070000C9448000C9448000C94480011241FBEB6
:10008000CFEFD8E0DEBFCDBF0E9453000C947D00BF
:100090000C94000082E085B980E090E0089515B8E6
:1000A00080E090E008958FEF84B91AB881E085B9B7
:1000B000C0E000E010E02C2F89B1847090E0C1E036
:1000C000009709F4C0E02C1729F0892B31F40E9425
:1000D0004F000CC0CC2351F002C000E010E00F5FD5
:1000E0001F4F0436110510F00E944A008FE19EE474
:0E00F0000197F1F700C00000DECFF894FFCFBB
:00000001FF
