:100000000C943E000C9448000C9448000C9448005A
:100010000C9448000C9448000C9448000C94480040
:100020000C9448000C9448000C9448000C94480030
:100030000C9448000C9448000C9448000C94480020
:100040000C9448000C9448000C9448000C94480010
:100050000C9448000C9448000C9448000C94480000
:100060000C9448000C9448000C9448000C944800F0
:100070000C9448000C9448000C94480011241FBEB6
:10008000CFEFD8E0DEBFCDBF0E944A000C948A00BB
:100090000C9400008FEF84B91AB880E020E041E0B2
:1000A00062E0EFECF7E03197F1F700C0000059B1E2
:1000B00091E0352F347052FF90E08130C9F080F02C
:1000C000823019F1833039F415B8291721F0332320
:1000D00061F082E091E0292FE4CF82E090E0FBCF55
:1000E00045B92917A9F031110EC083E0F7CF45B902
:1000F0004A9B05C055B15130D1F765B9F9CF2917E1
:1001000051F3332351F381E0E5CF85B9291719F372
:0801100080E0E1CFF894FFCF7D
:00000001FF
