:100000000C943E000C9448000C9448000C9448005A
:100010000C9448000C9448000C9448000C94480040
:100020000C9448000C9448000C9448000C94480030
:100030000C9448000C9448000C9448000C94480020
:100040000C9448000C9448000C9448000C94480010
:100050000C9448000C9448000C9448000C94480000
:100060000C9448000C9448000C9448000C944800F0
:100070000C9448000C9448000C94480011241FBEB6
:10008000CFEFD8E0DEBFCDBF0E9453000C946100DB
:100090000C94000082E085B980E090E0089585B17D
:1000A00080E090E008958FEF84B91AB881E085B9B7
:1000B0000E944F008FE19EE40197F1F700C000001D
:0600C000F7CFF894FFCF1A
:00000001FF
